:1000000003138316542A8200F100F10E030E8301BC
:10001000F0000A08A4008A010408A3000B19462A6C
:100020002308840024088A00700E8300710E0900E2
:100030002B0882073E2A422A143400342934023421
:1000400008340F34B12891289428A028CF28D72825
:10005000AA28EA28F128F328DF28E528E528E5285A
:10006000072923292D29632966297D298B299E2982
:100070009E283E285628080039343B34A218080030
:10008000A21441088400420878200002031D53286E
:1000900083120313C10AC20AC30B4128A2103930CC
:1000A000A000210803283A30A0005D28831603171A
:1000B0008C1C4828831203130800000803178C00C7
:1000C0008B1383160C1555308D00AA308D008C14BF
:1000D000831203138B17080003178D0003137B2073
:1000E0008000840A03178D0A03130800A218080071
:1000F00003178D000313831603178C130C1483123C
:100100000C0803130800290A033C031C89288C1ED1
:1001100008000B3E031C8E280C1E0800290A223EF4
:100120008200C0012A308400A90A1430A7001A08EE
:100130008000C007840A413004020319A9010800A5
:100140001F302B050319A628AB039528180806397C
:100150000319B4281A0818121A08FF30A900181633
:1001600008001A08A90A0800F4211430A7001A0888
:10017000C0070130031D9E282A060F390319CA281B
:100180002A080F390F3A031D9E282B08403A0319FD
:1001900031219E28A90A0230A7002A0E27292B0800
:1001A000A6002B0EF200720C0739313E8200AB081C
:1001B0000319DF28AB032B0818202729A2100530CC
:1001C000A9004003FF3A18162729A90AAB08031D06
:1001D000ED28DE28AB080319DF28AB030008840AEA
:1001E0002729A90AED28AB080319DE285D208B1307
:1001F000831603178C1C0029831203138B17F7280F
:100200000C1183128B178D0A0313ED28C0018B1379
:1002100003170D291F22A903E62800088E00840376
:1002200000088C00840A15210A2983168C170C15E6
:1002300055308D00AA308D008C14000000000C1188
:100240008C13831208000830A90AAB002607C007E8
:1002500099001430A7001A080800FB21252131213C
:100260007829C508031908002208F30803194C2946
:100270007308E039031D4929A21F47294022730250
:10028000031847298A157303FA278A114C2900306D
:100290004C29730884000008F40072088400E039D7
:1002A000031D5D29A21F5F294422720203185F29E2
:1002B0008A157208FB278A11840074088000F20AEC
:1002C000F30AC5033129F42103012E29A2189E281F
:1002D000A214FB212521730803178D000313720854
:1002E0008400C508031977296F20C5037129A2105E
:1002F0000630A9002C3084000800A2189E28A21401
:100300002C0803178D0003132C300402252107301D
:10031000792900302429A2189E28A2142C308400A8
:100320000A302E020A30031C2E08F4000310740D4C
:10033000252105221022F40B9A297729A21BEE29E8
:100340002C082D04031DB0292E08A53C031DAE2941
:100350002F08053C031926220230A21F0130F02984
:100360000330AD1DF0292C300402F40004300319D1
:10037000F0290310F40CF40305300319F0292C08BC
:1003800003390630031DF029A2189E28A214052265
:100390000430F300F2012E3084008B130317831610
:1003A0008C170C14000000008C1383120C08000240
:1003B000031DF203840A0E080002031DF203840ADF
:1003C0001F22F3030319E929F40BCD291022F30BA3
:1003D000E62905220A3025210A3079292217003022
:1003E000AC000130252178292C08F2002D30F300D3
:1003F0000402C50008002C30F2002C08F300143071
:100400002D021430031C2D08F9298B132D08031716
:100410008F0003132C0803178D0003138B1708009C
:100420008B13831603178C170C14000000008C1319
:1004300083120C088000840A0E088000840A0130B0
:100440008D0703188F0A03138B1708008B130317EC
:100450000F308F00FF308D0083168C170C140000B6
:1004600000008C1383120E0803138B17343C031DFA
:100470000800A2178A15F6278A110800A21F013466
:100480008A15FC2FA21F00348A15FE2F0B11C40BF6
:10049000502A2830C400A70B502A18160301A900BF
:1004A000A21F10288A15F92F8A308100BF308700DB
:1004B00020309800813099008C0183122030A322D3
:1004C000A030A322203084003C30C5000230C6009A
:1004D000450803208000C50A840AC60B682A9030AC
:1004E00098001A088C121A088C122622A0308B0051
:1004F00064002508840083200408A500221BA21F95
:100500009C2A8A15F7278A11A21B9C2A8B13031792
:100510000F308F00FC308D003F308E00FF308C009C
:100520001521FD308D001521FE308D001521FF3085
:100530008D00152103138B172213A21F782A8A1509
:10054000F8278A11782A84008001840A7F30040504
:06055000031DA42A0800AF
:101000008200FF34FF345A088207DB28E528E528F0
:101010000029E728ED28F328D31B1328640882074A
:1010200002290F291D2907080739031D1A28E8017D
:10103000D5141B28D510650882072C2941294F2972
:1010400055158A1110285511630882070800A72832
:10105000AF286808E81B003CC5005303E81B442880
:101060008207113410341034103411340E3410341B
:10107000113410341134113411341134103411344A
:1010800010341034103410348207183419341934E1
:1010900018341734193419341734193416341734F2
:1010A00017341734193418341834183418340B34EE
:1010B0002211DF185F195D28D901590882075E29BE
:1010C0009429C929FA29E329FE29192AFA29272A64
:1010D0002C2AFA29352A3A2AFA294A2A8207C428C8
:1010E000B828BA28BC28BE28C028C228C628C828C4
:1010F000CA28CC28CE28D0288207B42883163030BE
:1011000085008601873087000A30810086309F0085
:101110008312850186018701533084000130C500A8
:101120000230C600450800208000C50A840AC60BAC
:101130009228553084001630C6008001840AC60B00
:101140009D280800551D2320221958280800292011
:10115000FB3EC502C51B08005C10E30A08002920FD
:10116000C502C51FE8290800A2156A342208080034
:101170005D0808005E0808005F0808005B080800BA
:101180005C080800590808006A08080053080800AD
:101190005408080066080800670808006808080086
:1011A00055080800D908031D0800DB01DC01860191
:1011B0008501A2130800D60BE5288316FF308600B0
:1011C00083128711DA0ADA0ADA0ADA0A0C28060820
:1011D000FF3ADD0087150712E5280608FF3ADE0012
:1011E00007168712E5280608FF3ADF008716221542
:1011F000D70A8316860183125B0886005C08850087
:10120000DA010C28071D2A29D5191328D515E40A57
:1012100087180C29D3031328E40AD30A1328071DBF
:101220001829D5191328D515871C1328E4010D2971
:10123000D51D13288718E4012A29071D2629D51949
:101240001328D51587181328E4010A29D51D13285A
:10125000871CE401D5111328071C5C295518212887
:101260005514E50A87183B29FF30E6070318E70AFB
:10127000E707E8032128E50AE60A0319E70AE80A6E
:101280002128071C4A29551821285514871C212874
:10129000E5013C29551C21288718E5015C29071C1C
:1012A000582955182128551487182128E501342973
:1012B000551C2128871CE501551021280A30DB1E0A
:1012C000D8005E1D5E188D295E1DDE1F6B29DC14A3
:1012D000DB145B1508005E1C5E1F7229DC145B14B6
:1012E0005B1508005E1D5E187629E9295E1E8729B8
:1012F0005C14DB165B17D80803198029D803080093
:101300005F1A0800D301D401E601E7010800DE1EE0
:10131000E9295C145B165B170800DF1C64290130A7
:10132000D31B0C30D9000800E921DF189929D90313
:101330000800DC11A21D08006A1FA3295E19A82954
:101340000630D90008005E18A8290930D900080025
:101350006A081F3953020319C6290318B1295B16FD
:10136000B229DB165C14D90AEA1FC3295B1EBE2909
:10137000013E0319C129DB175B130800FF3E031D63
:10138000BB29D90AD90ADB135B170800D51C092A27
:1013900008005E19CD295E1CE7296A081F3953022F
:1013A000031DD529D90AD90AF3295B1EDF29013E7D
:1013B000031D0800DB130430D800D90A0800FF3EE3
:1013C0000319DA2908005E19EC295E18EC29D90105
:1013D000E301DB01DC010800DB135B176A081F393E
:1013E0005302031D08000130E300D90A0800D71991
:1013F000DC150800D80B0800D90A08005E19022A7B
:101400005E1CE729DB135B17E308031D0800530884
:10141000D400A211EA1E112A5E19162A0630D9003C
:1014200008005E18162A0930D90008000130D900DA
:101430000800DE191D2A5E1D202ADB110130DC297F
:10144000DB14DC14EA1F322ADB155B1108005B1584
:101450005E1D0800E921162ADE181D2A5E181D2AC5
:101460005B14DC14DB115B1508005B155E1C0800C7
:10147000E921162A5C145B17DB16D8080319422AE7
:10148000D80308005F1A0800D301D401E601E70180
:101490000230DC29530A5E196038EA00A215162AC8
:081FE800000000007E28D22851
:101FF000A22803286E287C288A110E348A11013405
:02400E003E3F33
:00000001FF
